:100000000C942A000C9447000C9447000C94470071
:100010000C9447000C9447000C9447000C9463190F
:100020000C9447000C9447000C9447000C94470034
:100030000C9447000C9447000C9447000C94470024
:100040000C9447000C9447000C9447000C94470014
:100050000C94470011241FBECFE5D8E0DEBFCDBF12
:1000600010E0A0E6B0E0EAE2F0E802C005900D92F0
:10007000A83AB107D9F717E0A8EAB0E001C01D928D
:10008000A431B107E1F70E94533F0C9413400C9444
:100090000000EF92FF920F931F937B018C0120E0F1
:1000A00030E040E05FE40E94490388238CF0C801FF
:1000B000B70120E030E040E05FE40E94C1010E940F
:1000C000A9039B01AC01205030404040504806C07D
:1000D000C801B7010E94A9039B01AC01B901CA0183
:1000E0001F910F91FF90EF900895A0E0B0E0EBE733
:1000F000F0E00C94CC3FDC012B01FA019C91923092
:1001000008F439C1EB018881823008F433C194309E
:1001100069F4843009F02FC111969C91119789815F
:10012000981709F428C1ACE9B0E025C1843009F47E
:1001300021C18230A9F4923009F01DC19A01AD01AC
:1001400088E0EA010990AE01E90109929E0181501F
:10015000C1F7E201898111969C918923818308C1AD
:10016000923009F407C112962D903C901397EB0141
:100170008A819B811496AD90BD90CD90DC901797AD
:10018000EC80FD800E811F819101281B390BB90184
:1001900037FF04C066277727621B730B6032710537
:1001A0000CF061C0121613066CF537014801062EDB
:1001B00004C096948794779467940A94D2F721E0C8
:1001C00030E040E050E004C0220F331F441F551FB1
:1001D0006A95D2F721503040404050402E213F21B7
:1001E00040235123211531054105510521F021E01E
:1001F00030E040E050E079018A01E628F72808293C
:1002000019293CC0232BD1F1260E371E350146019A
:10021000062E04C096948794779467940A94D2F734
:1002200021E030E040E050E004C0220F331F441FC3
:10023000551F6A95D2F721503040404050402A2146
:100240003B214C215D21211531054105510521F04E
:1002500021E030E040E050E059016A01A628B728CB
:10026000C828D9280BC0821593052CF01C01AA249C
:10027000BB24650103C0EE24FF24870111969C91E5
:10028000D20111968C91981709F445C0992339F041
:10029000A80197012A193B094C095D0906C0A6016E
:1002A00095012E193F09400B510B57FD08C01182D3
:1002B0003382228224833583468357831DC081E0A5
:1002C00081833382228288279927DC01821B930B4A
:1002D000A40BB50B84839583A683B7830DC0220F2F
:1002E000331F441F551F24833583468357838281E0
:1002F000938101979383828324813581468157813D
:10030000DA01C9010197A109B1098F5F9F4FAF4F72
:10031000BF4328F30BC0918333822282EA0CFB1C7B
:100320000C1D1D1DE482F5820683178383E0808304
:10033000248135814681578157FF1AC0C901AA27F8
:1003400097FDA095BA2F81709070A070B0705695EF
:10035000479537952795822B932BA42BB52B848318
:100360009583A683B7838281938101969383828349
:10037000DF0101C0D201CD01CDB7DEB7E2E10C94BF
:10038000E83FA0E2B0E0E7ECF1E00C94D83F6983ED
:100390007A838B839C832D833E834F835887E9E048
:1003A000EE2EF12CEC0EFD1ECE010196B7010E943F
:1003B000D2048E010F5E1F4FCE010596B8010E9438
:1003C000D2048A8991E089278A8BC701B801AE01DE
:1003D000475E5F4F0E9475000E94FD03A096E6E015
:1003E0000C94F43FA0E2B0E0E8EFF1E00C94D83FC9
:1003F00069837A838B839C832D833E834F835887C5
:10040000F9E0EF2EF12CEC0EFD1ECE010196B701A6
:100410000E94D2048E010F5E1F4FCE010596B801D7
:100420000E94D204C701B801AE01475E5F4F0E942F
:1004300075000E94FD03A096E6E00C94F43FA0E254
:10044000B0E0E5E2F2E00C94CC3F69837A838B83E1
:100450009C832D833E834F835887CE010196BE0136
:10046000675F7F4F0E94D204CE010596BE016F5E8A
:100470007F4F0E94D2049985923088F0898982301A
:10048000C8F0943019F4823051F404C0843029F457
:10049000923081F48CE990E0C6C0923049F420E0BB
:1004A0009A858A89981321E02A87CE010996BBC0D4
:1004B000823049F420E09A858A89981321E02A8BBA
:1004C000CE014196B0C02D843E844F8458886D88FB
:1004D0007E888F88988CEE24FF248701AA24BB2471
:1004E000650140E050E060E070E0E0E0F0E0C10174
:1004F00081709070892BE9F0E60CF71C081D191D1E
:100500009A01AB012A0D3B1D4C1D5D1D80E090E062
:10051000A0E0B0E0E614F7040805190520F481E036
:1005200090E0A0E0B0E0BA01A901480F591F6A1F8E
:100530007B1FAA0CBB1CCC1CDD1C97FE08C081E0F5
:1005400090E0A0E0B0E0A82AB92ACA2ADB2A3196B6
:10055000E032F10549F0660C771C881C991C569412
:10056000479437942794C3CFFA85EA892B893C892D
:100570008B859C85280F391F2E5F3F4F17C0CA01FE
:1005800081709070892B61F016950795F794E79428
:1005900080E090E0A0E0B0E8E82AF92A0A2B1B2BC3
:1005A00076956795579547952F5F3F4F77FDE7CF36
:1005B0000CC0440F551F661F771F17FD4160EE0CDE
:1005C000FF1C001F111F21503040403090E05907A0
:1005D00090E0690790E4790760F32B8F3C8FDB0193
:1005E000CA018F779070A070B07080349105A1051A
:1005F000B10561F447FD0AC0E114F10401051105DC
:1006000029F0405C5F4F6F4F7F4F40781A8EFE1786
:1006100011F081E08A8F4D8F5E8F6F8F78A383E01A
:10062000898FCE0149960E94FD03A096E2E10C94C9
:10063000E83FA8E1B0E0EFE1F3E00C94D83F698334
:100640007A838B839C832D833E834F83588789E0F5
:10065000E82EF12CEC0EFD1ECE010196B7010E9492
:10066000D2048E010F5E1F4FCE010596B8010E9485
:10067000D2048985823040F08989823028F0C70110
:10068000B8010E944A0501C08FEF6896E6E00C941D
:10069000F43FA8E1B0E0EFE4F3E00C94D83F6983C5
:1006A0007A838B839C832D833E834F83588789E095
:1006B000E82EF12CEC0EFD1ECE010196B7010E9432
:1006C000D2048E010F5E1F4FCE010596B8010E9425
:1006D000D2048985823040F08989823028F0C701B0
:1006E000B8010E944A0501C08FEF6896E6E00C94BD
:1006F000F43FA8E1B0E0EFE7F3E00C94D83F698362
:100700007A838B839C832D833E834F83588789E034
:10071000E82EF12CEC0EFD1ECE010196B7010E94D1
:10072000D2048E010F5E1F4FCE010596B8010E94C4
:10073000D2048985823040F08989823028F0C7014F
:10074000B8010E944A0501C081E06896E6E00C9479
:10075000F43FACE0B0E0EFEAF3E00C94DC3F6983F7
:100760007A838B839C83CE010196BE016B5F7F4FA2
:100770000E94D2048D81823061F1823050F1843048
:1007800021F48E81882351F12EC02F81388537FDC9
:1007900020C06E812F3131051CF06623F9F023C093
:1007A0008EE190E0821B930B29853A854B855C8511
:1007B00004C056954795379527958A95D2F76623B5
:1007C000B1F050954095309521953F4F4F4F5F4F79
:1007D0000EC020E030E040E050E009C02FEF3FEFD6
:1007E0004FEF5FE704C020E030E040E050E8B9019F
:1007F000CA012C96E2E00C94F83FDF92EF92FF9250
:100800000F931F93FC01E480F58006811781D1804E
:100810008081823048F480E090E0A0E1B0E0E82AF6
:10082000F92A0A2B1B2BA5C0843009F49FC0823003
:1008300021F4EE24FF24870105C0E114F104010531
:10084000110519F4E0E0F0E096C0628173819FEF3A
:10085000623879070CF05BC022E83FEF261B370BAC
:100860002A3131052CF020E030E040E050E02AC091
:10087000B801A701022E04C0769567955795479554
:100880000A94D2F781E090E0A0E0B0E004C0880FC5
:10089000991FAA1FBB1F2A95D2F70197A109B10979
:1008A0008E219F21A023B1230097A105B10521F03E
:1008B00081E090E0A0E0B0E09A01AB01282B392B59
:1008C0004A2B5B2BDA01C9018F779070A070B07052
:1008D00080349105A105B10539F427FF09C0205CDA
:1008E0003F4F4F4F5F4F04C0215C3F4F4F4F5F4F13
:1008F000E0E0F0E02030A0E03A07A0E04A07A0E402
:100900005A0710F0E1E0F0E079018A0127C0603871
:10091000710564F5FB01E158FF4FD801C7018F77DE
:100920009070A070B07080349105A105B10539F4C4
:10093000E7FE0DC080E490E0A0E0B0E004C08FE3EB
:1009400090E0A0E0B0E0E80EF91E0A1F1B1F17FFA1
:1009500005C016950795F794E794319687E01695AC
:100960000795F794E7948A95D1F705C0EE24FF2404
:100970008701EFEFF0E06E2F679566276795902F60
:100980009F77D794DD24D7948E2F8695492F462BB9
:10099000582F5D29B701CA011F910F91FF90EF9069
:1009A000DF900895FC01DB01408151812281622F9B
:1009B0006F7770E0221F2227221F9381892F880FD3
:1009C000822B282F30E0991F9927991F11969C930D
:1009D000119721153105A9F54115510561057105DD
:1009E00011F482E037C082E89FEF13969C938E93B8
:1009F00012979A01AB0167E0220F331F441F551F66
:100A00006A95D1F783E08C930DC0220F331F441FEA
:100A1000551F12968D919C911397019713969C9355
:100A20008E931297203080E0380780E0480780E4FA
:100A3000580758F314962D933D934D935C93179755
:100A400008952F3F310579F4411551056105710570
:100A500019F484E08C93089564FF03C081E08C93C3
:100A600012C01C9210C02F57304013963C932E9307
:100A7000129783E08C9387E0440F551F661F771F02
:100A80008A95D1F7706414964D935D936D937C9322
:100A9000179708951F93DC01FB019C91923008F495
:100AA00047C08081823008F443C0943051F41196DD
:100AB0001C91843099F58181682F70E0611B710968
:100AC0003FC0843021F0923031F48230B9F181811D
:100AD000882389F12DC011961C9111978230F1F075
:100AE00081811817D9F412962D913C911397828128
:100AF00093818217930794F028173907BCF0149656
:100B00008D919D910D90BC91A02D248135814681C0
:100B10005781281739074A075B0718F4112341F05A
:100B20000AC082179307A407B50740F4112319F0F0
:100B300061E070E005C06FEF7FEF02C060E070E041
:100B4000CB011F910895DF93CF930F92CDB7DEB7FE
:100B50001982EAE3F0E080EF8083EBE3F0E083ECDE
:100B60008083E7E3F0E080EF8083E8E3F0E083EC6C
:100B70008083E4E3F0E080EF8083E5E3F0E083EC62
:100B80008083E1E3F0E080EF8083E2E3F0E083EC58
:100B9000808389810F90CF91DF910895DF93CF9368
:100BA000CDB7DEB727970FB6F894DEBF0FBECDBF27
:100BB0008A836B834C8319828A81843008F0DEC07B
:100BC0008B81883008F0DAC08C81823008F0D6C082
:100BD0008A81282F30E03F832E838E819F81813050
:100BE000910509F443C02E813F81223031052CF458
:100BF0008E819F81009771F0BCC02E813F81223091
:100C0000310509F45FC08E819F818330910509F41D
:100C100085C0AFC08C818130A1F4AAE3B0E0EAE3E3
:100C2000F0E08081482F8B81282F30E081E090E038
:100C3000022E02C0880F991F0A94E2F7842B8C932E
:100C400098C0AAE3B0E0EAE3F0E08081482F8B810E
:100C5000282F30E081E090E0022E02C0880F991F1B
:100C60000A94E2F7809584238C9383C08C81813031
:100C7000A1F4A7E3B0E0E7E3F0E08081482F8B81A7
:100C8000282F30E081E090E0022E02C0880F991FEB
:100C90000A94E2F7842B8C936CC0A7E3B0E0E7E3FF
:100CA000F0E08081482F8B81282F30E081E090E0B8
:100CB000022E02C0880F991F0A94E2F780958423C0
:100CC0008C9357C08C818130A1F4A4E3B0E0E4E3BD
:100CD000F0E08081482F8B81282F30E081E090E088
:100CE000022E02C0880F991F0A94E2F7842B8C937E
:100CF00040C0A4E3B0E0E4E3F0E08081482F8B81C2
:100D0000282F30E081E090E0022E02C0880F991F6A
:100D10000A94E2F7809584238C932BC08C818130D8
:100D2000A1F4A1E3B0E0E1E3F0E08081482F8B8102
:100D3000282F30E081E090E0022E02C0880F991F3A
:100D40000A94E2F7842B8C9314C0A1E3B0E0E1E3B2
:100D5000F0E08081482F8B81282F30E081E090E007
:100D6000022E02C0880F991F0A94E2F7809584230F
:100D70008C9381E0898399819D8302C029812D8391
:100D80008D8127960FB6F894DEBF0FBECDBFCF91F1
:100D9000DF910895DF93CF93CDB7DEB727970FB6D6
:100DA000F894DEBF0FBECDBF8A836B834C8319825C
:100DB0008A81843008F0DEC08B81883008F0DAC088
:100DC0008C81823008F0D6C08A81282F30E03F83A2
:100DD0002E838E819F818130910509F443C02E813D
:100DE0003F81223031052CF48E819F81009771F074
:100DF000BCC02E813F812230310509F45FC08E8155
:100E00009F818330910509F485C0AFC08C81882310
:100E1000A1F0ABE3B0E0EBE3F0E08081482F8B8101
:100E2000282F30E081E090E0022E02C0880F991F49
:100E30000A94E2F7842B8C9398C0ABE3B0E0EBE329
:100E4000F0E08081482F8B81282F30E081E090E016
:100E5000022E02C0880F991F0A94E2F7809584231E
:100E60008C9383C08C818823A1F0A8E3B0E0E8E3F1
:100E7000F0E08081482F8B81282F30E081E090E0E6
:100E8000022E02C0880F991F0A94E2F7842B8C93DC
:100E90006CC0A8E3B0E0E8E3F0E08081482F8B81EC
:100EA000282F30E081E090E0022E02C0880F991FC9
:100EB0000A94E2F7809584238C9357C08C81882311
:100EC000A1F0A5E3B0E0E5E3F0E08081482F8B815D
:100ED000282F30E081E090E0022E02C0880F991F99
:100EE0000A94E2F7842B8C9340C0A5E3B0E0E5E3DD
:100EF000F0E08081482F8B81282F30E081E090E066
:100F0000022E02C0880F991F0A94E2F7809584236D
:100F10008C932BC08C818823A1F0A2E3B0E0E2E3A4
:100F2000F0E08081482F8B81282F30E081E090E035
:100F3000022E02C0880F991F0A94E2F7842B8C932B
:100F400014C0A2E3B0E0E2E3F0E08081482F8B819F
:100F5000282F30E081E090E0022E02C0880F991F18
:100F60000A94E2F7809584238C9381E089839981A8
:100F70009D8302C029812D838D8127960FB6F89419
:100F8000DEBF0FBECDBFCF91DF910895DF93CF932A
:100F9000CDB7DEB728970FB6F894DEBF0FBECDBF32
:100FA0008A836B835D834C8319828C819D8100973A
:100FB00029F483E08983298128877FC08A8184304E
:100FC00008F079C08B81883008F075C08A81482F7D
:100FD00050E05F834E838E819F818130910559F16E
:100FE0002E813F812230310534F44E815F814115DD
:100FF000510569F05BC08E819F818230910579F146
:101000002E813F812330310509F43DC04FC0E9E313
:10101000F0E08081282F30E08B81882F90E0A901BB
:1010200002C0559547958A95E2F7CA018170EC8117
:10103000FD8180833BC0E6E3F0E08081282F30E033
:101040008B81882F90E0A90102C0559547958A951C
:10105000E2F7CA018170EC81FD81808327C0E3E360
:10106000F0E08081282F30E08B81882F90E0A9016B
:1010700002C0559547958A95E2F7CA018170EC81C7
:10108000FD81808313C0E0E3F0E08081282F30E011
:101090008B81882F90E0A90102C0559547958A95CC
:1010A000E2F7CA018170EC81FD81808381E0898350
:1010B0005981588702C089818887888528960FB60C
:1010C000F894DEBF0FBECDBFCF91DF910895DF93BF
:1010D000CF9300D000D000D0CDB7DEB78A836B832A
:1010E00019828A81843008F077C08B81883008F0BB
:1010F00073C08A81282F30E03E832D838D819E81AD
:101100008130910549F12D813E81223031052CF449
:101110008D819E81009761F05AC02D813E812230E1
:10112000310571F18D819E8183309105E9F14FC0C8
:10113000ABE3B0E0EBE3F0E08081482F8B81282F18
:1011400030E081E090E0022E02C0880F991F0A94DF
:10115000E2F784278C933BC0A8E3B0E0E8E3F0E03B
:101160008081482F8B81282F30E081E090E0022E93
:1011700002C0880F991F0A94E2F784278C9327C036
:10118000A5E3B0E0E5E3F0E08081482F8B81282FD4
:1011900030E081E090E0022E02C0880F991F0A948F
:1011A000E2F784278C9313C0A2E3B0E0E2E3F0E01F
:1011B0008081482F8B81282F30E081E090E0022E43
:1011C00002C0880F991F0A94E2F784278C9381E06C
:1011D000898399819C8302C029812C838C812696E6
:1011E0000FB6F894DEBF0FBECDBFCF91DF9108954B
:1011F000DF93CF9300D000D000D0CDB7DEB78A8385
:101200006B8319828A81843008F057C08B818230C9
:1012100008F053C08A81282F30E03E832D838D81D2
:101220009E818130910509F12D813E812230310569
:101230002CF48D819E81009761F03AC02D813E8112
:1012400022303105F1F08D819E818330910529F1A5
:101250002FC08B81813029F4EAE3F0E08FEF8083A7
:1012600027C0EAE3F0E0108223C08B81813029F4AB
:10127000E7E3F0E08FEF80831BC0E7E3F0E010824C
:1012800017C08B81813029F4E4E3F0E08FEF808395
:101290000FC0E4E3F0E010820BC08B81813029F4B1
:1012A000E1E3F0E08FEF808303C0E1E3F0E0108240
:1012B00081E0898399819C8302C029812C838C8160
:1012C00026960FB6F894DEBF0FBECDBFCF91DF914B
:1012D0000895DF93CF9300D000D000D0CDB7DEB714
:1012E0008A836B8319828A81843008F057C08B818E
:1012F000823008F053C08A81282F30E03E832D834E
:101300008D819E818130910509F12D813E812230B0
:1013100031052CF48D819E81009761F03AC02D81BA
:101320003E8122303105F1F08D819E81833091051F
:1013300029F12FC08B81882329F0EBE3F0E08FEFB8
:10134000808327C0EBE3F0E0108223C08B818823E9
:1013500029F0E8E3F0E08FEF80831BC0E8E3F0E0E2
:10136000108217C08B81882329F0E5E3F0E08FEF2E
:1013700080830FC0E5E3F0E010820BC08B818823EF
:1013800029F0E2E3F0E08FEF808303C0E2E3F0E0D6
:10139000108281E0898399819C8302C029812C83FA
:1013A0008C8126960FB6F894DEBF0FBECDBFCF91CD
:1013B000DF910895DF93CF93CDB7DEB7E9970FB6EE
:1013C000F894DEBF0FBECDBF19AE81E061E041E011
:1013D0000E94CE0581E062E041E00E94CE0581E0FE
:1013E00063E041E00E94CE0580E067E041E00E94BA
:1013F000CE0580E066E041E00E94CE0580E065E039
:1014000041E00E94CE0580E064E041E00E94CE050C
:1014100080E090E0ACE0B2E48DAB9EABAFABB8AF98
:101420006DA97EA98FA998AD20E030E04AE755E488
:101430000E941F02DC01CB0189AB9AABABABBCAB0A
:1014400069A97AA98BA99CA920E030E040E85FE374
:101450000E94790388232CF481E090E098AB8FA759
:101460003FC069A97AA98BA99CA920E03FEF4FE76B
:1014700057E40E94190318164CF56DA97EA98FA98F
:1014800098AD20E030E040E251E40E941F02DC0110
:10149000CB01BC01CD010E944900DC01CB0198AB1E
:1014A0008FA70FC080E991E09EA78DA78DA59EA56F
:1014B0000197F1F79EA78DA78FA598A9019798ABE3
:1014C0008FA78FA598A9009769F714C069A97AA971
:1014D0008BA99CA90E944900DC01CB0198AB8FA786
:1014E0008FA598A99CA78BA78BA59CA50197F1F721
:1014F0009CA78BA780E20E947A0D80E20E947A0D61
:1015000080E80E947A0D80E090E0A0E8BFE38FA31E
:1015100098A7A9A7BAA76FA178A589A59AA520E041
:1015200030E04AE755E40E941F02DC01CB018BA3A7
:101530009CA3ADA3BEA36BA17CA18DA19EA120E025
:1015400030E040E85FE30E94790388232CF481E0D7
:1015500090E09AA389A33FC06BA17CA18DA19EA11D
:1015600020E03FEF4FE757E40E94190318164CF5AF
:101570006FA178A589A59AA520E030E040E251E46A
:101580000E941F02DC01CB01BC01CD010E94490079
:10159000DC01CB019AA389A30FC080E991E098A355
:1015A0008F8F8F8D98A10197F1F798A38F8F89A1C5
:1015B0009AA101979AA389A389A19AA1009769F793
:1015C00014C06BA17CA18DA19EA10E944900DC01E9
:1015D000CB019AA389A389A19AA19E8F8D8F8D8D0E
:1015E0009E8D0197F1F79E8F8D8F80E00E947A0D7E
:1015F00080EF0E947A0D80E090E0A0E8BFE3898F41
:101600009A8FAB8FBC8F698D7A8D8B8D9C8D20E0EE
:1016100030E04AE755E40E941F02DC01CB018D8BCC
:101620009E8BAF8BB88F6D897E898F89988D20E0D6
:1016300030E040E85FE30E94790388232CF481E0E6
:1016400090E09C8B8B8B3FC06D897E898F89988DB4
:1016500020E03FEF4FE757E40E94190318164CF5BE
:10166000698D7A8D8B8D9C8D20E030E040E251E4D5
:101670000E941F02DC01CB01BC01CD010E94490088
:10168000DC01CB019C8B8B8B0FC080E991E09A8BA6
:10169000898B89899A890197F1F79A8B898B8B8934
:1016A0009C8901979C8B8B8B8B899C89009769F710
:1016B00014C06D897E898F89988D0E944900DC0154
:1016C000CB019C8B8B8B8B899C89988B8F878F858B
:1016D00098890197F1F7988B8F8780E00E947A0DA7
:1016E00081E00E947A0D80E090E0A0E0B0E48B877A
:1016F0009C87AD87BE876B857C858D859E8520E028
:1017000030E04AE755E40E941F02DC01CB018F83E1
:101710009887A987BA876F81788589859A8520E01F
:1017200030E040E85FE30E94790388232CF481E0F5
:1017300090E09E838D833FC06F81788589859A85EF
:1017400020E03FEF4FE757E40E94190318164CF5CD
:101750006B857C858D859E8520E030E040E251E4FC
:101760000E941F02DC01CB01BC01CD010E94490097
:10177000DC01CB019E838D830FC080E991E09C83C7
:101780008B838B819C810197F1F79C838B838D8167
:101790009E8101979E838D838D819E81009769F73D
:1017A00014C06F81788589859A850E944900DC0183
:1017B000CB019E838D838D819E819A8389838981CC
:1017C0009A810197F1F79A83898380E00E947A0DCC
:1017D00086E00E947A0D81E08093A80081E089AFC5
:1017E00089ADE9960FB6F894DEBF0FBECDBFCF919D
:1017F000DF910895DF93CF93CDB7DEB76E970FB625
:10180000F894DEBF0FBECDBF8E8F1D8E8E8D82955C
:101810008F70982F917080E064E0492F0E94CA0673
:101820008E8D829586958770982F917080E065E007
:10183000492F0E94CA068E8D829586958695837063
:10184000982F917080E066E0492F0E94CA068E8D25
:10185000982F991F9927991F80E067E0492F0E94D0
:10186000CA0681E063E041E00E94CA0680E090E0A1
:10187000A0E0B0E4898F9A8FAB8FBC8F698D7A8D91
:101880008B8D9C8D20E030E04AE755E40E941F02DA
:10189000DC01CB018D8B9E8BAF8BB88F6D897E89E0
:1018A0008F89988D20E030E040E85FE30E94790363
:1018B00088232CF481E090E09C8B8B8B3FC06D895A
:1018C0007E898F89988D20E03FEF4FE757E40E9493
:1018D000190318164CF5698D7A8D8B8D9C8D20E03F
:1018E00030E040E251E40E941F02DC01CB01BC0168
:1018F000CD010E944900DC01CB019C8B8B8B0FC07A
:1019000080E991E09A8B898B89899A890197F1F70F
:101910009A8B898B8B899C8901979C8B8B8B8B896C
:101920009C89009769F714C06D897E898F89988D8D
:101930000E944900DC01CB019C8B8B8B8B899C899D
:10194000988B8F878F8598890197F1F7988B8F8770
:1019500081E063E040E00E94CA068091A8008823ED
:1019600009F4A2C08E8D982F917080E064E0492F19
:101970000E94CA068E8D8695982F917080E065E052
:10198000492F0E94CA068E8D86958695982F917054
:1019900080E066E0492F0E94CA068E8D8695869566
:1019A0008695982F917080E067E0492F0E94CA06C3
:1019B00081E063E041E00E94CA0680E090E0A0E0A0
:1019C000B0E48B879C87AD87BE876B857C858D85D2
:1019D0009E8520E030E04AE755E40E941F02DC01CA
:1019E000CB018F839887A987BA876F81788589858E
:1019F0009A8520E030E040E85FE30E947903882385
:101A00002CF481E090E09E838D833FC06F817885C8
:101A100089859A8520E03FEF4FE757E40E9419033C
:101A200018164CF56B857C858D859E8520E030E011
:101A300040E251E40E941F02DC01CB01BC01CD0158
:101A40000E944900DC01CB019E838D830FC080E999
:101A500091E09C838B838B819C810197F1F79C8320
:101A60008B838D819E8101979E838D838D819E8145
:101A7000009769F714C06F81788589859A850E94DF
:101A80004900DC01CB019E838D838D819E819A83E9
:101A9000898389819A810197F1F79A83898381E00B
:101AA00063E040E00E94CA0681E08D8F8D8D6E96C6
:101AB0000FB6F894DEBF0FBECDBFCF91DF91089572
:101AC000DF93CF9300D0CDB7DEB78A83198281E050
:101AD00061E041E00E94CA0681E062E040E00E94CD
:101AE000CA068A810E94FA0B89810F900F90CF91CC
:101AF000DF910895DF93CF9300D0CDB7DEB78A830F
:101B0000198281E061E040E00E94CA0681E062E063
:101B100040E00E94CA068A810E94FA0B81E0898314
:101B200089810F900F90CF91DF910895DF93CF932C
:101B300000D000D00F92CDB7DEB79C838B831A8282
:101B40008B819C810097F9F019820FC08981282F21
:101B500030E08B819C81FC01E20FF31F9081898131
:101B60008F5F8983892F0E94600D8981282F30E043
:101B70008B819C81FC01E20FF31F8081882331F768
:101B80008A818D8304C081E08A838A818D838D81DF
:101B90000F900F900F900F900F90CF91DF910895BD
:101BA000DF93CF93CDB7DEB7A0970FB6F894DEBF23
:101BB0000FBECDBF6B8F7C8F8D8F9E8F4F8F1E8200
:101BC0001D821C821B821A828B8D9C8DAD8DBE8DD9
:101BD000BB2394F48DE20E94600D8B8D9C8DAD8DA6
:101BE000BE8DB095A095909581959F4FAF4FBF4FFB
:101BF0008B8F9C8FAD8FBE8F8B8D9C8DAD8DBE8D51
:101C00000097A105B10509F04BC08D81282F30E068
:101C1000CE010796FC01E20FF31F80E380838D81E4
:101C20008F5F8D838D81282F30E0CE010796FC01D8
:101C3000E20FF31F10828E8188A37FC08F8D282F23
:101C400030E040E050E08B8D9C8DAD8DBE8DBC01B1
:101C5000CD010E948F3FDC01CB018C838D81282F29
:101C600030E08C81482F405DCE010796FC01E20FE9
:101C7000F31F40838D818F5F8D838F8D282F30E000
:101C800040E050E08B8D9C8DAD8DBE8DBC01CD01B3
:101C90000E948F3FDA01C9018B8F9C8FAD8FBE8F61
:101CA0008B8D9C8DAD8DBE8D0097A105B10531F654
:101CB0008D81282F30E0CE010796FC01E20FF31F43
:101CC00010828D8181508A832CC08B81282F30E037
:101CD000CE010796FC01E20FF31F808189838B817F
:101CE000482F50E08A81282F30E0CE010796FC0172
:101CF000E20FF31F2081CE010796FC01E40FF51FD0
:101D000020838A81282F30E0CE010796FC01E20F64
:101D1000F31F898180838B818F5F8B838A818150C0
:101D20008A839B818A81981780F2CE0107960E9450
:101D3000960D81E08E838E8188A388A1A0960FB630
:101D4000F894DEBF0FBECDBFCF91DF910895DF9332
:101D5000CF93CDB7DEB727970FB6F894DEBF0FBE8F
:101D6000CDBF8B836C831A828B81813118F48C8177
:101D7000833018F02A812F8323C019828C81282F69
:101D800030E03E832D838D819E818130910531F03D
:101D90002D813E812230310521F007C08B8189835E
:101DA00005C08B81805C898301C01A82898180682B
:101DB000898389810E947A0D81E08A833A813F83F9
:101DC0008F8127960FB6F894DEBF0FBECDBFCF919F
:101DD000DF910895DF93CF93CDB7DEB727970FB686
:101DE000F894DEBF0FBECDBF9D838C836E831B82B4
:101DF0008C819D81009719F08E81893018F08B813C
:101E00008F832AC08E81882F90E0880F991F880FBA
:101E1000991F880F991F8A838A8180648A838A81A7
:101E20000E947A0D19820EC08981282F30E08C81A2
:101E30009D81FC01E20FF31F80810E94600D89816A
:101E40008F5F89838981883078F382E00E947A0DE0
:101E500081E08B838B818F838F8127960FB6F894D7
:101E6000DEBF0FBECDBFCF91DF910895DF93CF933B
:101E700000D000D0CDB7DEB78A836B834C83198244
:101E80008C816B810E94A70E8A810E94600D81E087
:101E9000898389810F900F900F900F90CF91DF91E0
:101EA0000895DF93CF9300D00F92CDB7DEB78A832A
:101EB0006B8319828A816B819E012F5F3F4FA9013D
:101EC0000E94C60789810F900F900F90CF91DF91EC
:101ED0000895DF93CF9300D0CDB7DEB78BE090E0CD
:101EE0000E94AE129A83898389819A81009749F072
:101EF000E981FA811182108289819A8102960E9479
:101F00005C1589819A810F900F90CF91DF91089590
:101F1000DF93CF93CDB7DEB760970FB6F894DEBFEF
:101F20000FBECDBF9A8789877C876B875E874D8779
:101F3000388B2F8789859A859C838B8319820E9491
:101F4000CC2DEB81FC818081918198878F8389855D
:101F50009A852B853C85B9010E945F112F813885B8
:101F60008B859C85282B392B8D859E8528233923AD
:101F70008D859E8528173907C9F42F8138858B8573
:101F80009C85822B932B9E838D83EB81FC8120810A
:101F900031818D859E858095909582239323EB8159
:101FA000FC8191838083188A1F861EC08F85988943
:101FB000009791F08B819C81BC016E5F7F4F8D8576
:101FC0009E859C0135604F855889CB01B9010E94DF
:101FD000D0311E821D8208C0EB81FC8180819181FD
:101FE0009E838D8381E089830E94D82D8A838F858B
:101FF0009889009709F43AC08A81882311F40E94D5
:1020000051180E94FD359E838D838D819E81807045
:102010009270009731F50FB6F8940F92EB81FC8126
:10202000808191819E838D832D813E818D859E85CA
:10203000282339238D859E852817390771F4EB8174
:10204000FC81208131818D859E85809590958223AC
:102050009323EB81FC81918380830F900FBE81E0FD
:1020600089838D819E8190709E838D838D819E81D9
:1020700060960FB6F894DEBF0FBECDBFCF91DF9153
:1020800008950F931F93DF93CF93CDB7DEB7639778
:102090000FB6F894DEBF0FBECDBF9D878C877F87BC
:1020A0006E87488B298B1B8B0A8B8C859D859B8724
:1020B0008A871F821E821B820E94CC2DEA85FB85A7
:1020C000808191819A83898389819A812E853F8538
:1020D000B90149890E947C128D838D818823C1F0CA
:1020E00089819A81998788871B8A1A8A8889882397
:1020F000E9F1EA85FB85208131818E859F85809578
:10210000909582239323EA85FB85918380832EC05B
:102110008A899B89009739F489819A819987888770
:1021200081E08B8323C08889882329F08E819F8159
:1021300091609F838E838989882329F08E819F8176
:1021400094609F838E838A859B85BC016E5F7F4FE1
:102150002E853F858E819F81282B392B4A895B896B
:10216000CB01B9010E94D031198618860E94D82D62
:102170008C838A899B89009709F43CC08C818823D1
:1021800011F40E9451180E94FD359987888788852F
:10219000998580709270009741F50FB6F8940F9270
:1021A000EA85FB85808191819987888788859985D3
:1021B0002E853F85B90149890E947C12882389F0C8
:1021C0008889882371F0EA85FB85208131818E859D
:1021D0009F858095909582239323EA85FB85918343
:1021E000808381E08B830F900FBE888599859070E6
:1021F000998788878885998563960FB6F894DEBF9E
:102200000FBECDBFCF91DF911F910F910895DF9346
:10221000CF93CDB7DEB728970FB6F894DEBF0FBEC9
:10222000CDBF9E838D8378876F838D819E819C83B4
:102230008B830FB6F8940F92EB81FC8180819181A2
:102240009A838983EB81FC81208131818F819885FC
:102250008095909582239323EB81FC8191838083E9
:102260000F900FBE89819A8128960FB6F894DEBF31
:102270000FBECDBFCF91DF910895DF93CF93CDB740
:10228000DEB727970FB6F894DEBF0FBECDBF9F8392
:102290008E838E819F819C838B831D82EB81FC8149
:1022A000808191819A83898389819A8127960FB64B
:1022B000F894DEBF0FBECDBFCF91DF910895DF93BD
:1022C000CF93CDB7DEB765970FB6F894DEBF0FBEDC
:1022D000CDBF9B8B8A8B7D8B6C8B198618868A89E8
:1022E0009B899B838A8319828A819B8102969B8723
:1022F0008A878A859B8503969D878C870E94CC2D33
:10230000EA85FB8585819681998B888BEA81FB81A3
:10231000208131818C899D89822B932BEA81FB81DD
:102320009183808359C0E889F989828193819F874D
:102330008E87E889F989808191819F838E831982B4
:102340008E819F8180709D838C838E819F81907010
:102350009F838E838C819D8180709470009769F437
:10236000EA81FB81208131818E819F8182239323A9
:10237000009791F081E089830FC0EA81FB81208181
:1023800031818E819F81282339238E819F81281757
:10239000390711F481E0898389818823C9F08C8110
:1023A0009D8180709170009741F0888599852E817C
:1023B0003F81822B932B99878887EA81FB818081DB
:1023C00091819C01326088899989B9010E94793391
:1023D0008E859F85998B888B288939898C859D85E9
:1023E0002817390709F09FCFEA81FB8120813181CD
:1023F000888599858095909582239323EA81FB8136
:10240000918380830E94D82DEA81FB818081918114
:1024100065960FB6F894DEBF0FBECDBFCF91DF91AA
:102420000895DF93CF9300D000D000D0CDB7DEB7B2
:102430009E838D838D819E819C838B838B819C81E8
:1024400002969A8389830E94CC2D08C0E981FA8183
:102450008581968160E072E00E947933E981FA819A
:102460008081882399F70E94D82D8B819C810E94BE
:10247000A31326960FB6F894DEBF0FBECDBFCF9143
:10248000DF910895DF93CF9300D000D000D0CDB777
:10249000DEB79A8389834B835C836D837E838981D6
:1024A0009A812B813C81B9010E945F1126960FB65B
:1024B000F894DEBF0FBECDBFCF91DF910895DF93BB
:1024C000CF9300D000D000D0CDB7DEB79A838983F8
:1024D0004B835C836D837E8389819A812B813C81D0
:1024E000B9010E94071126960FB6F894DEBF0FBE01
:1024F000CDBFCF91DF910895DF93CF9300D000D06F
:1025000000D0CDB7DEB79B838A837D836C834E83F7
:1025100019828E81882359F48A819B812C813D8187
:1025200082239323009781F081E089830DC02A8163
:102530003B818C819D81282339238C819D812817A3
:10254000390711F481E08983898126960FB6F894C2
:10255000DEBF0FBECDBFCF91DF910895DF93CF9344
:10256000CDB7DEB72A970FB6F894DEBF0FBECDBF4A
:102570009A8789871A8219820E94CC2D8091A9009E
:102580009091AA00009711F40E9425148091AF0049
:102590009091B00029853A8582239323009709F012
:1025A000C5C089859A85009751F08091A5009091CA
:1025B000A60029853A85820F931F9A878987898586
:1025C0009A85009709F4B2C02091AB003091AC001D
:1025D00089859A852817390708F4A8C08DE896E000
:1025E0009E838D8380918D0690918E0698878F8330
:1025F0000AC08F8198859E838D83EF81F8858081C5
:10260000918198878F83EF81F88522813381898535
:102610009A852817390730F4EF81F88580819181F8
:10262000009739F72091A9003091AA008F819885F1
:102630008217930709F47AC0ED81FE8120813181F0
:102640008091A5009091A600820F931F9A838983A1
:10265000EF81F88580819181ED81FE819183808376
:10266000EF81F8852281338189859A85281B390B72
:102670008091A5009091A600880F991F821793075B
:1026800000F52F81388589859A85820F931F9C8359
:102690008B83EF81F8852281338189859A85A90111
:1026A000481B590BCA01EB81FC8193838283EF8124
:1026B000F88589859A85938382838B819C810E948A
:1026C000BA142091AB003091AC00EF81F885828183
:1026D0009381A901481B590BCA019093AC008093C8
:1026E000AB002091AB003091AC008091AD00909197
:1026F000AE002817390740F48091AB009091AC00F0
:102700009093AE008093AD00EF81F88522813381F4
:102710008091AF009091B000822B932BEF81F885D0
:1027200093838283EF81F885118210820E94D82DD5
:1027300089819A812A960FB6F894DEBF0FBECDBF6D
:10274000CF91DF910895DF93CF9300D000D000D0D8
:10275000CDB7DEB79E838D838D819E819C838B83D5
:102760008D819E81009709F44AC08091A5009091C7
:10277000A60022273327281B390B8B819C81820FCF
:10278000931F9C838B838B819C819A838983E981AE
:10279000FA81228133818091AF009091B000822331
:1027A0009323009761F1E981FA81808191810097FB
:1027B00031F5E981FA81228133818091AF009091D6
:1027C000B0008095909582239323E981FA819383C9
:1027D00082830E94CC2DE981FA812281338180910C
:1027E000AB009091AC00820F931F9093AC0080934C
:1027F000AB0089819A810E94BA140E94D82D269636
:102800000FB6F894DEBF0FBECDBFCF91DF91089514
:10281000DF93CF93CDB7DEB78091AB009091AC0042
:10282000CF91DF910895DF93CF93CDB7DEB780913D
:10283000AD009091AE00CF91DF910895DF93CF93DB
:10284000CDB7DEB7CF91DF910895DF93CF93CDB7AA
:10285000DEB72A970FB6F894DEBF0FBECDBF8CED62
:1028600095E09A83898381EB90E0CC01A0E0B0E011
:102870008B839C83AD83BE838B819C8198878F8360
:102880008F81988590938E0680938D061092900686
:1028900010928F068F8198859C01442737FD4095C3
:1028A000542F89819A81CC01A0E0B0E0820F931F60
:1028B000A41FB51F8B839C83AD83BE838091A5002D
:1028C0009091A6009C0140E050E08B819C81AD81FD
:1028D000BE81821B930BA40BB50B8B839C83AD83B2
:1028E000BE838B819C819093AA008093A900E09184
:1028F000A900F091AA0013821282E091A900F09140
:10290000AA00118210828F8198859A8789872B81EE
:102910003C8189859A85A901481B590BCA01E98523
:10292000FA85938382838091A9009091AA00E9851A
:10293000FA8591838083E985FA85828193819093DA
:10294000AE008093AD00E985FA85828193819093F2
:10295000AC008093AB0080E090E89093B00080934F
:10296000AF002A960FB6F894DEBF0FBECDBFCF9151
:10297000DF910895DF93CF9300D000D000D0CDB782
:10298000DEB79E838D838DE896E09C838B8306C0A3
:10299000EB81FC81808191819C838B83EB81FC8125
:1029A000208131818D819E812817390788F38B81A1
:1029B0009C819A838983EB81FC8122813381898187
:1029C0009A81280F391F8D819E812817390791F42C
:1029D000EB81FC8122813381ED81FE8182819381B3
:1029E000820F931FEB81FC81938382838B819C8177
:1029F0009E838D838D819E819A838983ED81FE8163
:102A00002281338189819A81280F391FEB81FC81D2
:102A1000808191812817390789F5EB81FC8120811C
:102A200031818091A9009091AA0028173907E9F017
:102A3000ED81FE8122813381EB81FC810190F08167
:102A4000E02D82819381820F931FED81FE8193831C
:102A50008283EB81FC810190F081E02D8081918166
:102A6000ED81FE819183808311C08091A9009091B6
:102A7000AA00ED81FE819183808308C0EB81FC81F7
:102A800080819181ED81FE81918380832B813C81C6
:102A90008D819E812817390731F0EB81FC818D8172
:102AA0009E819183808326960FB6F894DEBF0FBE79
:102AB000CDBFCF91DF910895DF93CF9300D0CDB7F5
:102AC000DEB79A83898389819A810396E981FA81A5
:102AD00092838183E981FA818FEF9FEF94838383CF
:102AE00089819A810396E981FA8196838583898118
:102AF0009A810396E981FA8190878783E981FA8137
:102B000010820F900F90CF91DF910895DF93CF93B4
:102B100000D0CDB7DEB79A838983E981FA81118627
:102B200010860F900F90CF91DF910895DF93CF9390
:102B300000D000D000D0CDB7DEB79C838B837E83DE
:102B40006D83EB81FC81818192819A838983ED8100
:102B5000FE8189819A8193838283E981FA818481CC
:102B60009581ED81FE8195838483E981FA810480DA
:102B7000F581E02D8D819E8193838283E981FA81A5
:102B80008D819E8195838483ED81FE818B819C81E3
:102B900091878087EB81FC8180818F5FEB81FC8155
:102BA000808326960FB6F894DEBF0FBECDBFCF91BF
:102BB000DF910895DF93CF93CDB7DEB728970FB697
:102BC000F894DEBF0FBECDBF9E838D8378876F8361
:102BD000EF81F885808191819A83898389819A81A7
:102BE0002FEF8F3F920739F4ED81FE818781908529
:102BF0009C838B8318C08D819E8103969C838B83DD
:102C000006C0EB81FC81828193819C838B83EB8165
:102C1000FC810280F381E02D2081318189819A81BC
:102C20008217930770F7EB81FC8182819381EF819A
:102C3000F88593838283EF81F8850280F381E02D0C
:102C40008F81988595838483EF81F8858B819C8122
:102C500095838483EB81FC818F8198859383828324
:102C6000EF81F8858D819E8191878087ED81FE813E
:102C700080818F5FED81FE81808328960FB6F89466
:102C8000DEBF0FBECDBFCF91DF910895DF93CF930D
:102C900000D000D0CDB7DEB79C838B83EB81FC8165
:102CA000808591859A838983EB81FC81A281B381A0
:102CB000EB81FC818481958115969C938E9314976A
:102CC000EB81FC81A481B581EB81FC8182819381C0
:102CD00013969C938E931297E981FA812181328118
:102CE0008B819C812817390741F4EB81FC81848119
:102CF0009581E981FA8192838183EB81FC81118640
:102D00001086E981FA8180818150E981FA8180838E
:102D1000E981FA8180810F900F900F900F90CF91F1
:102D2000DF910895DF93CF93CDB7DEB728970FB625
:102D3000F894DEBF0FBECDBF9C838B837E836D83F3
:102D400058874F83EB81FC8181E180838B819C815B
:102D500001979C838B83EB81FC8182E280838B8152
:102D60009C8101979C838B83EB81FC8183E380832F
:102D70008B819C8101979C838B838D819E819A831B
:102D800089838981EB81FC8180838B819C81019780
:102D90009C838B8389819A81892F99279A83898340
:102DA0008981EB81FC8180838B819C8101979C834D
:102DB0008B83EB81FC8110828B819C8101979C83AA
:102DC0008B83EB81FC8180E880838B819C810197E0
:102DD0009C838B83EB81FC8110828B819C8101978A
:102DE0009C838B83EB81FC8182E080838B819C813F
:102DF00001979C838B83EB81FC8183E080838B81B3
:102E00009C8101979C838B83EB81FC8184E0808390
:102E10008B819C8101979C838B83EB81FC8185E076
:102E200080838B819C8101979C838B83EB81FC81C8
:102E300086E080838B819C8101979C838B83EB81CF
:102E4000FC8187E080838B819C8101979C838B83AD
:102E5000EB81FC8188E080838B819C8101979C833E
:102E60008B83EB81FC8189E080838B819C8101973E
:102E70009C838B83EB81FC8180E180838B819C81AF
:102E800001979C838B83EB81FC8181E180838B8123
:102E90009C8101979C838B83EB81FC8182E1808301
:102EA0008B819C8101979C838B83EB81FC8183E1E7
:102EB00080838B819C8101979C838B83EB81FC8138
:102EC00084E180838B819C8101979C838B83EB8140
:102ED000FC8185E180838B819C8101979C838B831E
:102EE000EB81FC8186E180838B819C8101979C83AF
:102EF0008B83EB81FC8187E180838B819C810197AF
:102F00009C838B83EB81FC8188E180838B819C8116
:102F100001979C838B83EB81FC8189E180838B818A
:102F20009C8101979C838B83EB81FC8180E2808371
:102F30008B819C8101979C838B83EB81FC8181E257
:102F400080838B819C8101979C838B83EB81FC81A7
:102F500082E280838B819C8101979C838B83EB81B0
:102F6000FC8183E280838B819C8101979C838B838E
:102F70008F8198859A8389838981EB81FC81808305
:102F80008B819C8101979C838B8389819A81892F76
:102F900099279A8389838981EB81FC8180838B8146
:102FA0009C8101979C838B83EB81FC8186E28083EB
:102FB0008B819C8101979C838B83EB81FC8187E2D1
:102FC00080838B819C8101979C838B83EB81FC8127
:102FD00088E280838B819C8101979C838B83EB812A
:102FE000FC8189E280838B819C8101979C838B8308
:102FF000EB81FC8180E380838B819C8101979C83A2
:103000008B83EB81FC8181E380838B819C810197A1
:103010009C838B838B819C8128960FB6F894DEBFAE
:103020000FBECDBFCF91DF910895DF93CF93CDB782
:10303000DEB70E940719A0919106B0919206CD913A
:10304000CDBFDD91DEBFFF91EF91DF91CF91BF91B9
:10305000AF919F918F917F916F915F914F913F9130
:103060002F911F910F91FF90EF90DF90CF90BF9025
:10307000AF909F908F907F906F905F904F903F9018
:103080002F901F900F900FBE0F90089581E0CF9169
:10309000DF910895DF93CF93CDB7DEB7CF91DF9166
:1030A00008950F920FB6F8940F921F9211242F9249
:1030B0003F924F925F926F927F928F929F92AF92C8
:1030C000BF92CF92DF92EF92FF920F931F932F93B5
:1030D0003F934F935F936F937F938F939F93AF93A0
:1030E000BF93CF93DF93EF93FF93A0919106B0919D
:1030F00092060DB60D920EB60D920E944131A0912E
:103100009106B0919206CD91CDBFDD91DEBFFF91CA
:10311000EF91DF91CF91BF91AF919F918F917F916F
:103120006F915F914F913F912F911F910F91FF9060
:10313000EF90DF90CF90BF90AF909F908F907F9057
:103140006F905F904F903F902F901F900F900FBE09
:103150000F9008950F920FB6F8940F921F921124BA
:103160002F923F924F925F926F927F928F929F9297
:10317000AF92BF92CF92DF92EF92FF920F931F9385
:103180002F933F934F935F936F937F938F939F936F
:10319000AF93BF93CF93DF93EF93FF93A0919106EB
:1031A000B09192060DB60D920EB60D920E94AA2F06
:1031B000882311F00E944131A0919106B0919206AE
:1031C000CD91CDBFDD91DEBFFF91EF91DF91CF912A
:1031D000BF91AF919F918F917F916F915F914F912F
:1031E0003F912F911F910F91FF90EF90DF90CF9023
:1031F000BF90AF909F908F907F906F905F904F9017
:103200003F902F901F900F900FBE0F900895DF9367
:10321000CF9300D000D000D0CDB7DEB780E89EE3DA
:10322000A0E0B0E08B839C83AD83BE838B819C81C7
:10323000AD81BE81689415F8B695A7959795879549
:103240001694D1F78B839C83AD83BE838B819C8145
:10325000AD81BE810197A109B1098B839C83AD83A8
:10326000BE838B8189838B819C81AD81BE81892FB7
:103270009A2FAB2FBB278B839C83AD83BE838B811F
:103280008A83EBE4F0E08A818083EAE4F0E08981DC
:1032900080838BE08983EEE4F0E089818083E9E537
:1032A000F0E080818983898180618983E9E5F0E0AC
:1032B0008981808326960FB6F894DEBF0FBECDBFFE
:1032C000CF91DF9108950E94AA181895DF93CF93AC
:1032D00000D000D000D0CDB7DEB79D838C836E8345
:1032E00081E08B838C819D819A83898389819A81F6
:1032F000009709F48BC0E981FA81838D882309F452
:1033000085C0E981FA81838D282F30E08FEF9FE718
:10331000B9010E947B3FCB019C01E981FA81848D38
:10332000882F90E02817390708F470C00FB6F8947A
:103330000F92E981FA8140815181E981FA81838D7F
:10334000282F30E0E981FA81848D882F90E0BC013C
:10335000269FC001279F900D369F900D1124840F4A
:10336000951FE981FA8195838483E981FA81128E20
:10337000E981FA8180819181E981FA819383828355
:10338000E981FA8140815181E981FA81838D882F19
:1033900090E09C0121503040E981FA81848D882F92
:1033A00090E0BC01269FC001279F900D369F900D95
:1033B0001124840F951FE981FA8197838683E9811F
:1033C000FA818FEF858FE981FA818FEF868F8E8169
:1033D000882379F4E981FA8180858823A1F08981A5
:1033E0009A8108960E943532882369F00E9451180C
:1033F0000AC089819A8108960E945C1589819A8108
:1034000041960E945C150F900FBE01C01B828B81FC
:1034100026960FB6F894DEBF0FBECDBFCF91DF91D9
:1034200008950F931F93DF93CF93CDB7DEB72997FE
:103430000FB6F894DEBF0FBECDBF8F836887498774
:103440001E821D828F81882309F452C08F81282F0C
:1034500030E08FEF9FE7B9010E947B3FCB019C01D9
:103460008885882F90E02817390708F441C08F819C
:10347000282F30E08885882F90E0AC01249FC00180
:10348000259F900D349F900D11245FE7813E950795
:1034900078F58F81282F30E08885882F90E0AC0167
:1034A000249FC001259F900D349F900D11249C8373
:1034B0008B838B819C814F960E94AE129E838D835D
:1034C0008D819E810097A1F08D819E819A83898351
:1034D00089819A814F969A83898329813A81ED81E6
:1034E000FE818F816885A90129858F010E94851A37
:1034F0008D819E8129960FB6F894DEBF0FBECDBF99
:10350000CF91DF911F910F9108950F931F93DF9338
:10351000CF93CDB7DEB727970FB6F894DEBF0FBEB7
:10352000CDBF89836A835C834B832D831F830E8386
:103530008A81882339F48E819F81EE81FF81918376
:10354000808306C08B819C81EE81FF819183808383
:10355000EE81FF818981838FEE81FF818A81848F53
:103560008E819F8161E00E94661927960FB6F894BC
:10357000DEBF0FBECDBFCF91DF911F910F91089598
:10358000DF93CF93CDB7DEB72F970FB6F894DEBF9A
:103590000FBECDBF998788877B876A875D874C87F9
:1035A0002E871C82888599859A8389830FB6F89423
:1035B0000F92E981FA81928DE981FA81838D9817C2
:1035C00018F08E85823011F589819A812A853B8594
:1035D000B9014E850E942B1F8B83E981FA81818975
:1035E000882351F089819A8141960E94353288233F
:1035F00041F00E94511805C08B81882311F00E9470
:1036000051180F900FBE81E08F875CC08C859D851F
:10361000009721F40F900FBE1F8654C08C81882321
:1036200031F4CE0105960E94A53481E08C830F9081
:103630000FBE0E94CC2D0FB6F8940F92E981FA814B
:10364000858D8F3F19F4E981FA81158EE981FA8120
:10365000868D8F3F19F4E981FA81168E0F900FBE87
:10366000CE0105969E01245F3F4FB9010E94BE34F2
:10367000882309F589819A810E94A7208823A1F0D7
:1036800089819A8108962C853D85B9010E94AE31C9
:1036900089819A810E9418200E94D82D882309F0E0
:1036A00085CF0E94511882CF89819A810E9418206B
:1036B0000E94D82D7BCF89819A810E9418200E9478
:1036C000D82D1F868F852F960FB6F894DEBF0FBEBC
:1036D000CDBFCF91DF910895DF93CF93CDB7DEB704
:1036E0002E970FB6F894DEBF0FBECDBF998788879F
:1036F0007B876A875D874C872E87888599859D8320
:103700008C831E82EC81FD81928DEC81FD81838D05
:10371000981718F08E858230B9F5EC81FD81868D81
:103720008B83EC81FD81828D8A838C819D812A85AA
:103730003B85B9014E850E942B1F8B818F3FA9F4D9
:10374000EC81FD8181898823E1F08C819D81419606
:103750000E9435328823A9F08C859D85009789F0D9
:10376000EC85FD8581E080830CC00E94542F898305
:103770009B818981981728F48B818F5FEC81FD8173
:10378000868F81E08F8301C01F828F812E960FB6B6
:10379000F894DEBF0FBECDBFCF91DF910895DF93C8
:1037A000CF93CDB7DEB72B970FB6F894DEBF0FBE21
:1037B000CDBF998788877B876A87888599859D8310
:1037C0008C831E82EC81FD81828D8B83EC81FD8157
:1037D000938D8B81891780F5EC81FD81868D8A839D
:1037E0008B818F5FEC81FD81828F8A818F3FA9F46D
:1037F000EC81FD8181898823E1F08C819D81419656
:103800000E9435328823A9F08A859B85009789F02C
:10381000EA85FB8581E080830CC00E94542F898358
:103820009A818981981728F48A818F5FEC81FD81C4
:10383000868F81E08F8301C01F828F812B960FB608
:10384000F894DEBF0FBECDBFCF91DF910895DF9317
:10385000CF93CDB7DEB72E970FB6F894DEBF0FBE6D
:10386000CDBF998788877B876A875D874C871C8255
:10387000888599859B838A830FB6F8940F92EA8195
:10388000FB81828D898389818823F9F08A819B81DC
:103890002A853B85B9010E94D11F89818150EA8127
:1038A000FB81828FEA81FB818085882349F08A81B0
:1038B0009B8108960E943532882311F00E9451188E
:1038C0000F900FBE81E08E8763C08C859D85009729
:1038D00021F40F900FBE1E865BC08C81882331F4CB
:1038E000CE0105960E94A53481E08C830F900FBE17
:1038F0000E94CC2D0FB6F8940F92EA81FB81858D42
:103900008F3F19F4EA81FB81158EEA81FB81868D58
:103910008F3F19F4EA81FB81168E0F900FBECE0106
:1039200005969E01245F3F4FB9010E94BE34882353
:1039300009F58A819B810E946B208823A1F08A81EE
:103940009B8141962C853D85B9010E94AE318A81CB
:103950009B810E9418200E94D82D882309F08CCFCB
:103960000E94511889CF8A819B810E9418200E9451
:10397000D82D82CF8A819B810E9418200E94D82D49
:103980008A819B810E946B20882309F475CF1E8653
:103990008E852E960FB6F894DEBF0FBECDBFCF91A9
:1039A000DF910895DF93CF93CDB7DEB72C970FB695
:1039B000F894DEBF0FBECDBF998788877B876A8763
:1039C0001C82888599859B838A830FB6F8940F9211
:1039D000EA81FB81828D898389818823C1F0898175
:1039E0008150EA81FB81828FEA81FB818085882377
:1039F00049F08A819B8108960E943532882311F014
:103A00000E9451180F900FBE81E08C8763C08A8599
:103A10009B85009721F40F900FBE1C865BC08C81A4
:103A2000882331F4CE0105960E94A53481E08C8371
:103A30000F900FBE0E94CC2D0FB6F8940F92EA8122
:103A4000FB81858D8F3F19F4EA81FB81158EEA8118
:103A5000FB81868D8F3F19F4EA81FB81168E0F90D2
:103A60000FBECE0105969E01265F3F4FB9010E9411
:103A7000BE34882309F58A819B810E946B208823AC
:103A8000A1F08A819B8141962A853B85B9010E94DC
:103A9000AE318A819B810E9418200E94D82D8823F4
:103AA00009F093CF0E94511890CF8A819B810E9488
:103AB00018200E94D82D89CF8A819B810E941820CE
:103AC0000E94D82D8A819B810E946B20882309F453
:103AD0007CCF1C868C852C960FB6F894DEBF0FBE6B
:103AE000CDBFCF91DF910895DF93CF93CDB7DEB7F0
:103AF00060970FB6F894DEBF0FBECDBF9B878A8755
:103B00007D876C875F874E871E828A859B859B8316
:103B10008A830FB6F8940F92EA81FB81828D8983A4
:103B20008981882331F1EA81FB81868197819D8398
:103B30008C838A819B812C853D85B9010E94D11F90
:103B4000EA81FB818C819D8197838683EA81FB8159
:103B50008189882349F08A819B8141960E94353270
:103B6000882311F00E9451180F900FBE81E0888BBE
:103B700063C08E859F85009721F40F900FBE188A31
:103B80005BC08E81882331F4CE0107960E94A53454
:103B900081E08E830F900FBE0E94CC2D0FB6F8945B
:103BA0000F92EA81FB81858D8F3F19F4EA81FB81B9
:103BB000158EEA81FB81868D8F3F19F4EA81FB81A6
:103BC000168E0F900FBECE0107969E01225F3F4FCB
:103BD000B9010E94BE34882309F58A819B810E9425
:103BE0006B208823A1F08A819B8141962E853F8599
:103BF000B9010E94AE318A819B810E9418200E94E7
:103C0000D82D882309F085CF0E94511882CF8A8150
:103C10009B810E9418200E94D82D7BCF8A819B8196
:103C20000E9418200E94D82D8A819B810E946B20BF
:103C3000882309F46ECF188A888960960FB6F894A5
:103C4000DEBF0FBECDBFCF91DF910895DF93CF933D
:103C5000CDB7DEB72D970FB6F894DEBF0FBECDBF40
:103C6000998788877B876A875D874C878885998550
:103C70009D838C831E82EC81FD81828D8B838B8161
:103C80008823B9F1EC81FD81858D8A838C819D81AA
:103C90002A853B85B9010E94D11F8B818150EC811F
:103CA000FD81828F8A818F3FA9F4EC81FD8180851F
:103CB0008823E1F08C819D8108960E94353288230B
:103CC000A9F08C859D85009789F0EC85FD8581E0C4
:103CD00080830CC00E94542F89839A818981981710
:103CE00028F48A818F5FEC81FD81858F81E08F834D
:103CF00001C01F828F812D960FB6F894DEBF0FBED4
:103D0000CDBFCF91DF910895DF93CF93CDB7DEB7CD
:103D10002A970FB6F894DEBF0FBECDBF98878F836A
:103D20007A8769878F8198859A8389831D82E98143
:103D3000FA81828D8823B1F0E981FA8186819781A9
:103D40009C838B8389819A8129853A85B9010E9458
:103D5000D11FE981FA818B819C819783868381E0E1
:103D60008E8301C01E828E812A960FB6F894DEBF24
:103D70000FBECDBFCF91DF910895DF93CF9300D0D9
:103D80000F92CDB7DEB79B838A830FB6F8940F925C
:103D9000EA81FB81828D89830F900FBE89810F900C
:103DA0000F900F90CF91DF910895DF93CF9300D0C4
:103DB00000D00F92CDB7DEB79D838C838C819D811F
:103DC0009A8389830FB6F8940F92E981FA81938DD3
:103DD000E981FA81828D292F281B822F8B830F90F6
:103DE0000FBE8B810F900F900F900F900F90CF917F
:103DF000DF910895DF93CF9300D000D00F92CDB71D
:103E0000DEB79D838C838C819D819A838983E98130
:103E1000FA81828D8B838B810F900F900F900F9082
:103E20000F90CF91DF910895DF93CF9300D000D012
:103E3000CDB7DEB79C838B838B819C819A838983EA
:103E400089819A810E94A3130F900F900F900F9079
:103E5000CF91DF910895DF93CF93CDB7DEB727974A
:103E60000FB6F894DEBF0FBECDBF9C838B837E83DD
:103E70006D834F831A82EB81FC81828D8983EB8174
:103E8000FC81848D882309F47DC08F81882399F576
:103E9000EB81FC8162817381EB81FC81848D482FF1
:103EA00050E02D813E81CB01B9010E940340EB819E
:103EB000FC8122813381EB81FC81848D882F90E00D
:103EC000820F931FEB81FC8193838283EB81FC81C2
:103ED00022813381EB81FC81848195812817390708
:103EE00008F450C0EB81FC8180819181EB81FC81E1
:103EF0009383828347C0EB81FC8166817781EB816C
:103F0000FC81848D482F50E02D813E81CB01B90189
:103F10000E940340EB81FC8126813781EB81FC818B
:103F2000848D882F90E0909581959F4F820F931FED
:103F3000EB81FC8197838683EB81FC81268137812D
:103F4000EB81FC81808191812817390790F4EB8106
:103F5000FC8124813581EB81FC81848D882F90E068
:103F6000909581959F4F820F931FEB81FC819783E2
:103F700086838F81823031F48981882319F0898189
:103F80008150898389818F5FEB81FC81828F8A8157
:103F900027960FB6F894DEBF0FBECDBFCF91DF914D
:103FA0000895DF93CF9300D000D0CDB7DEB79A83CA
:103FB00089837C836B83E981FA81848D882389F1ED
:103FC000E981FA8126813781E981FA81848D882F00
:103FD00090E0820F931FE981FA8197838683E981BC
:103FE000FA8126813781E981FA81848195812817B8
:103FF000390740F0E981FA8180819181E981FA8174
:1040000097838683E981FA8146815781E981FA8124
:10401000848D282F30E08B819C81BA01A9010E94F8
:1040200003400F900F900F900F90CF91DF91089564
:10403000DF93CF9300D000D0CDB7DEB79C838B83C6
:104040000FB6F8940F92EB81FC81868D8A8311C0A4
:10405000EB81FC818189882379F08B819C81419659
:104060000E943532882311F00E942F358A818150B9
:104070008A838A81181664F3EB81FC818FEF868F27
:104080000F900FBE0FB6F8940F92EB81FC81858DD7
:10409000898311C0EB81FC818085882379F08B8135
:1040A0009C8108960E943532882311F00E942F359A
:1040B0008981815089838981181664F3EB81FC81A1
:1040C0008FEF858F0F900FBE0F900F900F900F9076
:1040D000CF91DF910895DF93CF9300D00F92CDB7AA
:1040E000DEB79B838A830FB6F8940F92EA81FB8137
:1040F000828D882319F481E0898301C019820F9091
:104100000FBE89810F900F900F90CF91DF9108958E
:10411000DF93CF9300D000D00F92CDB7DEB79D8351
:104120008C838C819D819A838983E981FA81828D38
:10413000882319F481E08B8301C01B828B810F904F
:104140000F900F900F900F90CF91DF910895DF9314
:10415000CF9300D00F92CDB7DEB79B838A830FB683
:10416000F8940F92EA81FB81928DEA81FB81838D25
:10417000981719F481E0898301C019820F900FBE4E
:1041800089810F900F900F90CF91DF910895DF9369
:10419000CF9300D000D00F92CDB7DEB79D838C8334
:1041A0008C819D819A838983E981FA81928DE9814D
:1041B000FA81838D981719F481E08B8301C01B82EB
:1041C0008B810F900F900F900F900F90CF91DF91F8
:1041D0000895CF92DF92EF92FF920F931F93DF9398
:1041E000CF93CDB7DEB72C970FB6F894DEBF0FBED6
:1041F000CDBF9D838C837F836E8348873A872987D1
:104200001C870B878885813019F481E0898301C080
:1042100019828E819F81009721F481E090E09F8335
:104220008E838C819D819C01205F3F4F8C819D817D
:104230008217930768F48C819D8101969D838C83FE
:104240008C819D810F960E94AE129B838A8302C04F
:104250001B821A828A819B810097B1F06A817B81DF
:104260008A819B819C01215F3F4F4C815D81EE8162
:10427000FF81A985BA85CB84DC84CB01B9019F017C
:1042800009817D010E94A1288A819B812C960FB60D
:10429000F894DEBF0FBECDBFCF91DF911F910F917C
:1042A000FF90EF90DF90CF900895DF93CF9300D0F1
:1042B00000D0CDB7DEB79C838B838B819C819A83A2
:1042C0008983E981FA818685882F90E082709070D9
:1042D000009729F489819A810E94A31308C08981DB
:1042E0009A8160E070E04FE050E00E940C400F9037
:1042F0000F900F900F90CF91DF910895CF92DF92A2
:10430000EF92FF920F931F93DF93CF93CDB7DEB75A
:1043100029970FB6F894DEBF0FBECDBF9987888767
:10432000888599859F838E831D821C821B821A82B9
:1043300019820FB6F8940F92EE81FF8180859185E6
:10434000009721F5EE81FF81828593850097F1F436
:10435000EE81FF8144855585EE81FF812481358181
:10436000EE81FF81A681B781EE81FF8116858E8166
:104370009F81EB81FC81C980DA80BA01A9019D018E
:10438000012F7F010E94A12881E08D830F900FBE35
:104390008D8129960FB6F894DEBF0FBECDBFCF91A9
:1043A000DF911F910F91FF90EF90DF90CF900895D4
:1043B000DF93CF93CDB7DEB727970FB6F894DEBF64
:1043C0000FBECDBF9D838C837F836E838C819D8147
:1043D0009B838A838E819F81009721F481E090E006
:1043E0009F838E83EA81FB81248135818E819F8129
:1043F0008217930748F4EA81FB818E819F8197831E
:10440000868381E0898301C01982898127960FB64E
:10441000F894DEBF0FBECDBFCF91DF910895DF933B
:10442000CF93CDB7DEB728970FB6F894DEBF0FBE97
:10443000CDBF98878F838F8198859E838D83ED81F3
:10444000FE81808191819A838983ED81FE8124811F
:104450003581ED81FE8180819181820F931F9C8344
:104460008B83ED81FE81228133818B819C81821B34
:10447000930B9C838B83ED81FE8120813181898127
:104480009A8128173907D9F68B819C8101979C83E3
:104490008B83ED81FE81248135818B819C81821704
:1044A000930750F0ED81FE81248135818B819C81C1
:1044B000821B930B9C838B838B819C8128960FB6E8
:1044C000F894DEBF0FBECDBFCF91DF910895DF938B
:1044D000CF9300D000D000D0CDB7DEB79E838D83C0
:1044E0008D819E819C838B838B819C810E94672818
:1044F0009A83898389819A8126960FB6F894DEBFC4
:104500000FBECDBFCF91DF910895CF92DF92EF9292
:10451000FF920F931F93DF93CF93CDB7DEB76597CD
:104520000FB6F894DEBF0FBECDBF9F878E87798B05
:10453000688B5B8B4A8B3D8B2C8B8E859F859A87F6
:1045400089871E821D828A899B899C838B831A821C
:104550001982E985FA858481958101979A838983F7
:10456000E985FA858685882F90E081709070882390
:1045700079F08B819C8102969C838B832B813C817B
:1045800089819A818217930770F41D8A1C8A0BC057
:104590002B813C8189819A818217930720F489813C
:1045A0009A819C838B838C899D89009709F443C0F1
:1045B000CE010B960E9487340FB6F8940F9289852E
:1045C0009A850E940F229E838D832D813E818B814F
:1045D0009C812817390768F580E090E060E00E9430
:1045E000DE3C0E94EB35E985FA85938782870F9040
:1045F0000FBEEC89FD8980E040E050E060E070E0B3
:1046000000E010E020E030E0EE24FF246F010E9483
:10461000DA36E985FA8513861286CE010B969E015D
:104620002C5E3F4FB9010E94BE34882309F4C4CFE9
:1046300002C00F900FBE8D819E81009731F4898555
:104640009A850E940F229E838D8389859A85288969
:1046500039894A895B89ED81FE81AB81BC81B901D1
:104660009F018D010E94F52398878F838F81988504
:10467000009741F189859A850E9467289C01E98508
:10468000FA858681978128173907E0F00E94CC2DA2
:10469000E985FA8580859185009791F0E985FA850D
:1046A0008085918560E020E030E040E050E000E06F
:1046B000EE24FF240E94D137E985FA851186108601
:1046C0000E94D82D8F81988565960FB6F894DEBF2D
:1046D0000FBECDBFCF91DF911F910F91FF90EF9053
:1046E000DF90CF900895CF92DF92EF92FF920F93D9
:1046F0001F93DF93CF93CDB7DEB761970FB6F894D2
:10470000DEBF0FBECDBF9B878A877D876C875F87A3
:104710004E87398B288B8A859B85998788878E85DC
:104720009F859B838A83E885F9858685882F90E01D
:1047300081709070882329F08A819B8102969B83E7
:104740008A83888599850E940F229D838C83888522
:1047500099852C853D854E855F85EC81FD81AA81FB
:10476000BB81B9019F018D010E94F5239F838E8338
:104770008E819F81009741F1888599850E946728E5
:104780009C01E885F9858681978128173907E0F033
:104790001982E885F985808591850097A9F0E885DB
:1047A000F98580859185E889F98960E020E030E02D
:1047B00040E050E000E0EE24FF246F010E948F39BA
:1047C000E885F985118610868E819F8161960FB6E6
:1047D000F894DEBF0FBECDBFCF91DF911F910F9137
:1047E000FF90EF90DF90CF9008950F931F93DF938A
:1047F000CF93CDB7DEB762970FB6F894DEBF0FBE8A
:10480000CDBF9E838D8378876F835A8749873C8786
:104810002B871E870D87ED81FE81828193819A838C
:104820008983ED81FE818685882F90E0817090706C
:104830008823F1F089859A859C838B832B853C8521
:104840008D859E852817390780F09E012D5F3F4F8B
:104850008D819E81E981FA81B90142E050E09F019A
:104860000E945F279A8389831AC01A86198617C007
:1048700029853A853A8B298B8B859C85988B8F87E8
:104880002F85388989899A898217930720F4298985
:104890003A89388B2F878F8598899A878987898568
:1048A0009A85009789F04F8158858D819E81298551
:1048B0003A85E981FA81BA01A9019F010E945F2727
:1048C000ED81FE819383828389859A8562960FB6F6
:1048D000F894DEBF0FBECDBFCF91DF911F910F9136
:1048E0000895CF92DF92EF92FF920F931F93DF9381
:1048F000CF93CDB7DEB760970FB6F894DEBF0FBE8B
:10490000CDBF9A8789877C876B875E874D87388B79
:104910002F8789859A8598878F831E821D82EF81D4
:10492000F8858685882F90E081709070882329F023
:1049300082E090E09A83898302C01A8219828F856F
:104940009889009709F43FC00FB6F8940F928F81B1
:1049500098850E9467289C838B832B813C81898169
:104960009A818217930758F080E090E060E00E94FF
:10497000DE3C0E94EB35EF81F885918780870F90B0
:104980000FBE2B813C8189819A818217930708F1A0
:10499000EF85F88980E040E050E060E070E000E002
:1049A00010E020E030E0EE24FF246F010E94DA36B0
:1049B000EF81F885118610868F8198850E9467287F
:1049C0009C838B8306C08F8198850E9467289C8377
:1049D0008B832B813C8189819A818217930770F5A3
:1049E0008F8198852B853C854D855E85EB81FC818B
:1049F000B9019F010E94F0259E838D838D819E8148
:104A00000097E1F00E94CC2DE985FA858285938597
:104A1000009791F0E985FA858285938560E020E032
:104A200030E040E050E000E0EE24FF240E94D13767
:104A3000E985FA85138612860E94D82D8D819E8184
:104A400060960FB6F894DEBF0FBECDBFCF91DF9159
:104A50001F910F91FF90EF90DF90CF900895DF931B
:104A6000CF93CDB7DEB72A970FB6F894DEBF0FBE4F
:104A7000CDBF9A87898789859A859E838D83ED81AD
:104A8000FE818685882F90E081709070882319F1CF
:104A90008D819E810E9467289A83898389819A816A
:104AA00083309105A8F09E01295F3F4FED81FE8183
:104AB0000190F081E02D8D819E81B90142E050E0AE
:104AC0009F010E94E2278F8198859C838B8305C07C
:104AD0001C821B8202C01C821B828B819C812A96B5
:104AE0000FB6F894DEBF0FBECDBFCF91DF91089512
:104AF000CF92DF92EF92FF920F93DF93CF93CDB7D8
:104B0000DEB761970FB6F894DEBF0FBECDBF9B87AF
:104B10008A877D876C875F874E87398B288B8A854C
:104B20009B85998788871F821E82E885F9858685FF
:104B3000882F90E081709070882329F082E090E0C7
:104B40009B838A8302C01B821A82888599850E9472
:104B500067289D838C832C813D818A819B8182176C
:104B6000930770F5888599852C853D854E855F85F1
:104B7000EC81FD81B9019F010E94F0259F838E8306
:104B80008E819F810097E1F01982E885F985828501
:104B900093850097A9F0E885F98582859385E88952
:104BA000F98960E020E030E040E050E000E0EE24F1
:104BB000FF246F010E948F39E885F98513861286DC
:104BC0008E819F8161960FB6F894DEBF0FBECDBF78
:104BD000CF91DF910F91FF90EF90DF90CF900895EC
:104BE000DF93CF93CDB7DEB764970FB6F894DEBFEF
:104BF0000FBECDBF9A8789877C876B875E874D877D
:104C0000388B2F87E985FA85808191819A83898302
:104C1000E985FA858685882F90E0817090708823D9
:104C200011F19E01295F3F4F89859A85E981FA81BB
:104C3000B90142E050E09F010E94E2279A838983F4
:104C40008F8198859C838B838F8598890297988B19
:104C50008F872B813C818D859E858217930738F441
:104C60001C821B8204C08D859E859C838B832B8137
:104C70003C813C8B2B8B8F8598899A8B898B2989DA
:104C80003A898B899C898217930720F42B893C8968
:104C90003A8B298B89899A899E838D838D819E8108
:104CA000009789F04B855C8589859A852D813E81A9
:104CB000E981FA81BA01A9019F010E94E227E985F1
:104CC000FA85918380838D819E8164960FB6F894D6
:104CD000DEBF0FBECDBFCF91DF910895DF93CF939D
:104CE000CDB7DEB727970FB6F894DEBF0FBECDBFA6
:104CF0009F838E838E819F819D838C83EC81FD8138
:104D0000808191819A838983EC81FD812281338125
:104D100089819A812817390719F481E08B8301C0B2
:104D20001B828B8127960FB6F894DEBF0FBECDBFD6
:104D3000CF91DF910895DF93CF93CDB7DEB727975B
:104D40000FB6F894DEBF0FBECDBF9F838E838E81DA
:104D50009F819A838983E981FA818685882F90E0F3
:104D600081709070882329F082E090E09C838B838F
:104D700002C01C821B828E819F810E940F229C0197
:104D80008B819C818217930718F081E08D8301C08D
:104D90001D828D8127960FB6F894DEBF0FBECDBF62
:104DA000CF91DF910895CF92DF92EF92FF920F9310
:104DB000DF93CF93CDB7DEB728970FB6F894DEBF59
:104DC0000FBECDBF9E838D8378876F838D819E813B
:104DD0009C838B831982EB81FC8180859185009770
:104DE000C1F0EB81FC8180859185EF81F88560E0E1
:104DF00020E030E040E050E000E0EE24FF246F01CE
:104E00000E948F39EB81FC811186108681E08A83B4
:104E100001C01A828A8128960FB6F894DEBF0FBEB1
:104E2000CDBFCF91DF910F91FF90EF90DF90CF90AA
:104E30000895CF92DF92EF92FF920F93DF93CF937B
:104E4000CDB7DEB728970FB6F894DEBF0FBECDBF43
:104E50009E838D8378876F838D819E819C838B83D6
:104E60001982EB81FC81828593850097C1F0EB81EB
:104E7000FC8182859385EF81F88560E020E030E059
:104E800040E050E000E0EE24FF246F010E948F39E3
:104E9000EB81FC811386128681E08A8301C01A822D
:104EA0008A8128960FB6F894DEBF0FBECDBFCF9192
:104EB000DF910F91FF90EF90DF90CF900895DF93F7
:104EC000CF93CDB7DEB72E970FB6F894DEBF0FBEE7
:104ED000CDBF9C838B837E836D8358874F833A87B6
:104EE0002987EB81FC812481358189859A85A901F7
:104EF000481B590BCA012F8138853E872D879C8717
:104F00008B874B855C858D859E858417950720F45E
:104F10002D853E853C872B874B855C855A8349834D
:104F2000EB81FC812485358589859A85820F931FC5
:104F30002D813E8149815A81B9010E9403402F8110
:104F4000388589819A8182179307B0F4EB81FC81BF
:104F5000648575852D813E8189819A81A901480FDB
:104F6000591F2F81388589819A81281B390BCB01E4
:104F7000BA01A9010E94034029853A858F8198854D
:104F8000820F931F9A878987EB81FC812481358169
:104F900089859A858217930750F0EB81FC812481E3
:104FA000358189859A85821B930B9A8789878985A4
:104FB0009A852E960FB6F894DEBF0FBECDBFCF9167
:104FC000DF910895DF93CF93CDB7DEB72E970FB65D
:104FD000F894DEBF0FBECDBF9C838B837E836D8331
:104FE00058874F833A872987EB81FC81248135815B
:104FF00089859A85A901481B590BCA012F813885DB
:105000003E872D879C878B874B855C858D859E850C
:105010008417950720F42D853E853C872B874B858B
:105020005C855A834983EB81FC812485358589859C
:105030009A85A901480F591F8D819E8129813A8146
:10504000BA01A9010E9403402F81388589819A8184
:1050500082179307B0F42D813E8189819A81B9012D
:10506000680F791FEB81FC81448555852F81388538
:1050700089819A81281B390BCB01BA01A9010E94B1
:10508000034029853A858F819885820F931F9A87DF
:105090008987EB81FC812481358189859A858217F6
:1050A000930750F0EB81FC812481358189859A85B5
:1050B000821B930B9A87898789859A852E960FB6CE
:1050C000F894DEBF0FBECDBFCF91DF910895DF937F
:1050D000CF9300D000D0CDB7DEB79C838B83EB811C
:1050E000FC8124813581EB81FC8182819381820F57
:1050F000931F9A838983EB81FC812081318189818F
:105100009A81821B930B9A838983EB81FC81248192
:10511000358189819A818217930750F0EB81FC8158
:105120002481358189819A81821B930B9A8389839B
:1051300089819A810F900F900F900F90CF91DF91FE
:105140000895CF92DF92EF92FF920F93DF93CF9368
:10515000CDB7DEB72D970FB6F894DEBF0FBECDBF2B
:105160009A8389837C836B835E834D8338872F8307
:105170000987FB86EA86DD86CC8689819A8160E094
:1051800070E04FE050E00E940C40E981FA818B8191
:105190009C8195878487E981FA818D819E819583A1
:1051A0008483E981FA818F81988597838683E98159
:1051B000FA81898586872D960FB6F894DEBF0FBEDB
:1051C000CDBFCF91DF910F91FF90EF90DF90CF9007
:1051D00008958F929F92AF92BF92CF92DF92EF92FB
:1051E000FF920F931F93DF93CF93CDB7DEB76097F6
:1051F0000FB6F894DEBF0FBECDBF9F838E83798735
:1052000068875B874A873D872C870E87F88AEF86F9
:105210008A859B850E94AE129A83898389819A81AF
:105220000097F1F08EE290E00E94AE129D838C8395
:105230008C819D81009779F08C819D8160E070E088
:105240004EE250E00E940C40EC81FD8189819A8100
:10525000908F878B07C089819A810E94A31302C017
:105260001D821C828C819D810097E9F08A859B8537
:105270009C0140E050E08E819F8168857985EC85B6
:10528000FD85AF85B889AC80BD808F01EE846D014E
:10529000882499240E9469298C819D810E94182A62
:1052A00081E08B8302C08FEF8B838B8160960FB67A
:1052B000F894DEBF0FBECDBFCF91DF911F910F914C
:1052C000FF90EF90DF90CF90BF90AF909F908F9026
:1052D00008958F929F92AF92BF92CF92DF92EF92FA
:1052E0000F931F93DF93CF93CDB7DEB764970FB6BD
:1052F000F894DEBF0FBECDBF9D838C837F836E830A
:10530000288739874A875B871D870C87EE86D88A6E
:10531000CF86BA8AA98A9C8A8B8AE989FA892789E1
:10532000308D888599850197820F931F9B838A838F
:105330008E819F81009749F1198221C08981482F70
:1053400050E08981282F30E08E819F81FC01E20F9F
:10535000F31F208189899A89840F951FFC01799612
:1053600020838981282F30E08E819F81FC01E20F0C
:10537000F31F8081882331F089818F5F8983898140
:105380008031E0F2E989FA8910A68E85843010F028
:1053900083E08E87E989FA898E85868B89899A8947
:1053A00002960E94861589899A890C960E94861514
:1053B000E989FA8989899A89918780878E85282F3A
:1053C00030E084E090E0821B930BE989FA899587AD
:1053D0008487E989FA8989899A89938B828B8A8162
:1053E0009B812C813D814C855D85B9010E9492167F
:1053F000E989FA89918380838F859889009731F0B4
:10540000EF85F88989899A899183808364960FB69C
:10541000F894DEBF0FBECDBFCF91DF911F910F91EA
:10542000EF90DF90CF90BF90AF909F908F900895B6
:10543000DF93CF9300D000D0CDB7DEB79C838B83B2
:105440000FB6F8940F92809194068F5F8093940624
:105450008091910690919206009769F48B819C81CE
:105460009093920680939106809194068130B9F4CE
:105470000E94433514C080919806882381F4E091FE
:105480009106F09192069689EB81FC8186898917B5
:1054900030F08B819C81909392068093910680914D
:1054A0009D068F5F80939D06EB81FC81968980919C
:1054B0009706891728F4EB81FC81868980939706EB
:1054C000EB81FC818689282F30E0C901880F991F64
:1054D000880F991F880F991F820F931FFC01ED55AC
:1054E000F94F818192819A838983EB81FC81898143
:1054F0009A8195838483E981FA8184819581EB8106
:10550000FC8197838683E981FA810480F581E02D0F
:105510008B819C810296938382838B819C810296EE
:10552000E981FA8195838483EB81FC818689282F28
:1055300030E0C901880F991F880F991F880F991FA4
:10554000820F931F8D55994FEB81FC819387828742
:10555000EB81FC818689282F30E0C901880F991FD3
:10556000880F991F880F991F820F931FFC01ED551B
:10557000F94F80818F5F80830F900FBE80919806D6
:10558000882361F0E0919106F09192069689EB8173
:10559000FC818689981710F40E9451180F900F9083
:1055A0000F900F90CF91DF910895DF93CF9300D0AC
:1055B00000D000D0CDB7DEB79C838B830FB6F894B4
:1055C0000F928B819C81009739F480919106909184
:1055D00092069E838D8304C08B819C819E838D83E4
:1055E0008D819E819A83898389819A8102960E9406
:1055F0004616E981FA8184899589009729F0898185
:105600009A810C960E94461680919D068F5F80932A
:105610009D06209191063091920689819A81821788
:10562000930781F489819A819C012E5F3F4F86EE1A
:1056300096E0B9010E949615809193068F5F809342
:10564000930607C0809194068150809394060E942F
:10565000C9350F900FBE2091910630919206898135
:105660009A818217930721F089819A810E94B3352C
:1056700080919806882359F02091910630919206E6
:1056800089819A818217930711F40E9451182696F6
:105690000FB6F894DEBF0FBECDBFCF91DF91089556
:1056A000DF93CF9300D00F92CDB7DEB79B838A8371
:1056B00019828A819B81009751F00E94CC2D8A81AA
:1056C0009B8160E00E94A93D0E94D82D8983898139
:1056D000882311F40E9451180F900F900F90CF91D2
:1056E000DF910895DF93CF93CDB7DEB727970FB63D
:1056F000F894DEBF0FBECDBF9D838C830FB6F894A8
:105700000F928C819D81009739F480919106909140
:1057100092069F838E8304C08C819D819F838E839C
:105720008E819F819B838A838A819B8102960E94BE
:105730004616EA81FB8184899589009729F08A8140
:105740009B810C960E9446168A819B819C012E5F4C
:105750003F4F8FEE96E0B9010E94961519821DC049
:105760008981282F332727FD30958A819B81820FDD
:10577000931FFC01BD968081813061F48981282FBF
:10578000332727FD30958A819B81820F931FFC016F
:10579000BD96108289818F5F89838981181604F7ED
:1057A0000F900FBE80919806882339F00FB6F894B9
:1057B0000F920E94C9350F900FBE20919106309133
:1057C00092068A819B8182179307A1F480919806A3
:1057D000882319F00E9451180DC09091EF06809116
:1057E0009406981729F4109292061092910602C01E
:1057F0000E94413127960FB6F894DEBF0FBECDBF91
:10580000CF91DF910895DF93CF9300D000D00F9216
:10581000CDB7DEB79D838C831B828C819D819A835B
:105820008983E981FA818285938526E08F3E9207FC
:1058300081F4E981FA818489958926E08D3D92077A
:1058400041F0E981FA8184899589009711F481E01A
:105850008B838B810F900F900F900F900F90CF91B3
:10586000DF910895DF93CF9300D000D000D0CDB763
:10587000DEB79E838D838D819E819C838B83209157
:105880009106309192068B819C818217930709F4CF
:105890008AC08B819C81009709F485C00FB6F8946B
:1058A0000F928B819C810E94032C882309F479C07C
:1058B0008B819C8102960E944616EB81FC81968921
:1058C00080919706891728F4EB81FC818689809363
:1058D0009706EB81FC818689282F30E0C901880F6B
:1058E000991F880F991F880F991F820F931FFC0122
:1058F000ED55F94F818192819A838983EB81FC81F7
:1059000089819A8195838483E981FA818481958153
:10591000EB81FC8197838683E981FA810480F5819C
:10592000E02D8B819C810296938382838B819C8165
:105930000296E981FA8195838483EB81FC818689D3
:10594000282F30E0C901880F991F880F991F880FF1
:10595000991F820F931F8D55994FEB81FC8193877F
:105960008287EB81FC818689282F30E0C901880F6E
:10597000991F880F991F880F991F820F931FFC0191
:10598000ED55F94F80818F5F8083EB81FC81968993
:10599000E0919106F09192068689981710F00E9486
:1059A00051180F900FBE26960FB6F894DEBF0FBEAB
:1059B000CDBFCF91DF910895DF93CF93CDB7DEB701
:1059C00028970FB6F894DEBF0FBECDBF98878F83A0
:1059D0001E828F8198859D838C831B828C819D8103
:1059E0000E94032C882309F48CC08091A20688238E
:1059F00009F07DC0EC81FD819689E0919106F091DE
:105A000092068689981728F081E08E8381E0809342
:105A10009B068C819D8102960E944616EC81FD8139
:105A2000968980919706891728F4EC81FD818689F3
:105A300080939706EC81FD818689282F30E0C9018B
:105A4000880F991F880F991F880F991F820F931F26
:105A5000FC01ED55F94F818192819A838983EC8114
:105A6000FD8189819A8195838483E981FA8184818A
:105A70009581EC81FD8197838683E981FA81048099
:105A8000F581E02D8C819D810296938382838C81A8
:105A90009D810296E981FA8195838483EC81FD8161
:105AA0008689282F30E0C901880F991F880F991F18
:105AB000880F991F820F931F8D55994FEC81FD819F
:105AC00093878287EC81FD818689282F30E0C90188
:105AD000880F991F880F991F880F991F820F931F96
